S0190000546865726D616C6D616E6167656D656E742E7372656321
S113000009C016C015C014C013C012C011C010C05E
S11300100FC00EC011241FBECFE9CDBF20E0A0E663
S1130020B0E001C01D92A236B207E1F70ED036C08F
S1130030E7CF13B882E087B983EA86B980E888B944
S113004080E288BB87E087BB08952FE38DE093E0CF
S1130050215080409040E1F700C00000EADF369A6A
S1130060C29A369A87EA91E60197F1F700C0000038
S113007080916000909161008095909590936100CB
S113008080936000892B11F0C19801C0C19A84B19A
S1130090289B02C0C298E5CFC29AE3CFF894FFCF61
S9030000FC
