:1000000009C016C015C014C013C012C011C010C062
:100010000FC00EC011241FBECFE9CDBF20E0A0E667
:10002000B0E001C01D92A436B207E1F785D081C1CE
:10003000E7CF009781F0C29AEFE4F3EC3197F1F744
:1000400000C00000C298EFE4F3EC3197F1F700C074
:100050000000019781F708958FE384BB87E087BB99
:1000600083E886B983E287B983EC8FBD16BE81E051
:1000700083BF089585B190E04997880F991F9093A9
:10008000630080936200089585B18295869587709C
:1000900090E09C01220F331F220F331F820F931F0A
:1000A000880F991F88968B35910538F08AE590E086
:1000B0009093610080936000089590936100809315
:1000C00060000895CF93DF93209162003091630028
:1000D000C901880F991F820F931F880F991F880FDE
:1000E000991F880F991F821B930B9C01220F331FAE
:1000F000220F331F820F931F880F991F8657964137
:10010000609160007091610069517109FED0EB014E
:100110006996BE0180E090E093D020E030E04FE7A8
:1001200053E4CBD088231CF48C2F9D2F02C08FEF7B
:1001300090E0DF91CF9108952FE38DE093E021507F
:1001400080409040E1F700C0000086DFC0E0D0E0D2
:1001500000E010E00F2EF2E2CF2EF02D912CA12C1A
:100160000F2EF3E2BF2EF02D0F2EFAE0EF2EF12C22
:10017000F02DDD24DA9436991FC02196C370DD2757
:10018000C130D10569F01CF4209741F011C0C23094
:10019000D10541F0C330D10541F00AC06BDF0BC07F
:1001A00069DF09C067DFB7B806C06EDFC7B803C034
:1001B000C7B8C92DDA2D369A809160009091610000
:1001C0009695879580179107E9F08C01C2989FE377
:1001D0002DE083E0915020408040E1F700C0000016
:1001E0008091600090916100B7018FD0CB0103979F
:1001F00020DF9FE32DE083E0915020408040E1F735
:1002000000C0000020916200309163008091600086
:10021000909161002817390720F0C19AC29A16BE42
:10022000AACFC29880916200909163004A9718F417
:10023000C198D6BEA0CFC19A45DF809586BF9BCF1F
:10024000E89409C097FB3EF4909580957095619570
:100250007F4F8F4F9F4F9923A9F0F92F96E9BB2726
:100260009395F695879577956795B795F111F8CFA2
:10027000FAF4BB0F11F460FF1BC06F5F7F4F8F4F0D
:100280009F4F16C0882311F096E911C0772321F003
:100290009EE8872F762F05C0662371F096E8862F9B
:1002A00070E060E02AF09A95660F771F881FDAF7F2
:1002B000880F9695879597F9089503D008F48FEFE6
:1002C0000895990F0008550FAA0BE0E8FEEF1616E7
:1002D0001706E807F907C0F012161306E407F5073A
:1002E00098F0621B730B840B950B39F40A2661F0AE
:1002F000232B242B252B21F408950A2609F4A14051
:10030000A6958FEF811D811D0895AA1BBB1B51E18E
:1003100007C0AA1FBB1FA617B70710F0A61BB70B75
:10032000881F991F5A95A9F780959095BC01CD011A
:060330000895F894FFCFD0
:00000001FF
