:1000000009C016C015C014C013C012C011C010C062
:100010000FC00EC011241FBECFE9CDBF20E0A0E667
:10002000B0E001C01D92A436B207E1F764D062C10E
:10003000E7CF009781F0C29AEFE4F3EC3197F1F744
:1000400000C00000C298EFE4F3EC3197F1F700C074
:1000500000000197EECF08958FE384BB87E087BB54
:1000600083E886B983E287B983EC8FBD16BE81E051
:1000700083BF089585B190E0449790936300809387
:100080006200089585B182958695877090E06AE058
:1000900070E00BD188968B35910510F08AE590E0E1
:1000A00090936100809360000895CF93DF938091D7
:1000B00062009091630066EE70E0F7D0865796413B
:1000C000609160007091610069517109FFD0EB018E
:1000D0006996BE0180E090E083D020E030E04FE7F9
:1000E00053E4BBD087FF02C0CE0102C08FEF90E087
:1000F000DF91CF9108952FE38DE093E02150804070
:100100009040E1F700C00000A7DFC0E0D0E000E0D1
:1001100010E033E2D32E42E2C42E5AE0E52EF12C59
:10012000BB24BA94369918C02196C370DD27C2301B
:10013000D10561F0C330D10561F0C130D10521F0A6
:1001400099DFC0E0D0E007C095DF05C093DFD7B8E6
:1001500002C098DFC7B8369A809160009091610024
:100160009695879580179107E9F08C01C2982FE347
:100170008DE093E0215080409040E1F700C0000006
:100180008091600090916100B701A0D0CB010397EE
:1001900050DF2FE38DE093E0215080409040E1F765
:1001A00000C00000209162003091630080916000E7
:1001B000909161002817390720F0C19AC29A16BEA3
:1001C000B1CFC29880916200909163004A9718F471
:1001D000C198B6BEA7CFC19A68DF809586BFA2CF6F
:1001E000E89409C097FB3EF49095809570956195D1
:1001F0007F4F8F4F9F4F9923A9F0F92F96E9BB2787
:100200009395F695879577956795B795F111F8CF02
:10021000FAF4BB0F11F460FF1BC06F5F7F4F8F4F6D
:100220009F4F16C0882311F096E911C0772321F063
:100230009EE8872F762F05C0662371F096E8862FFB
:1002400070E060E02AF09A95660F771F881FDAF752
:10025000880F9695879597F9089503D008F48FEF46
:100260000895990F0008550FAA0BE0E8FEEF161647
:100270001706E807F907C0F012161306E407F5079A
:1002800098F0621B730B840B950B39F40A2661F00E
:10029000232B242B252B21F408950A2609F4A140B1
:1002A000A6958FEF811D811D08950024552704C058
:1002B000080E591F880F991F009729F076956795AA
:1002C000B8F37105B9F7802D952F0895AA1BBB1BB4
:1002D00051E107C0AA1FBB1FA617B70710F0A61B46
:1002E000B70B881F991F5A95A9F780959095BC0167
:0802F000CD010895F894FFCF41
:00000001FF
