:1000000009C016C015C014C013C012C011C010C062
:100010000FC00EC011241FBECFE9CDBF20E0A0E667
:10002000B0E001C01D92A436B207E1F753D05FC122
:10003000E7CF009781F0C29AEFE4F3EC3197F1F744
:1000400000C00000C298EFE4F3EC3197F1F700C074
:1000500000000197EECF08958FE384BB87E087BB54
:1000600083E886B983E287B983EC8FBD16BE81E051
:1000700083BF089585B190E04997880F991F9093A9
:100080006300809362000895CF93DF9380916200B4
:1000900090916300499766EE70E0F1D06091600046
:1000A0007091610069517109FBD0EB016996BE0145
:1000B000882777FD8095982F7FD020E030E04FE7AC
:1000C00053E4B5D087FD02C0CFEFD0E0CE01DF9181
:1000D000CF9108952FE38DE093E021508040904030
:1000E000E1F700C00000B8DFC0E0D0E000E010E0C1
:1000F00033E2B32E42E2A42E5AE0C52ED12C69E1A0
:10010000962E88248A94369915C02196C370DD27CF
:10011000C230D10531F0C330D10529F0C130D1054D
:1001200029F4A8DF06C0A6DFB7B803C0A7B8C0E0AF
:10013000D0E0369AE0906000F0906100E016F106A1
:10014000D9F0C2982FE38DE093E021508040904099
:10015000E1F700C000008091600090916100B6015D
:100160009FD0CB0166DF2FE38DE093E021508040EC
:100170009040E1F700C000002091620030916300E0
:100180008091600090916100281739072CF086BE9D
:10019000C19AC29A8701B7CFC298809162009091AC
:1001A00063004A971CF496BEC198F4CF6DDF86BFFA
:1001B000C19AF0CFE89409C097FB3EF490958095E2
:1001C000709561957F4F8F4F9F4F9923A9F0F92F1D
:1001D00096E9BB279395F695879577956795B7959B
:1001E000F111F8CFFAF4BB0F11F460FF1BC06F5F81
:1001F0007F4F8F4F9F4F16C0882311F096E911C093
:10020000772321F09EE8872F762F05C0662371F0B3
:1002100096E8862F70E060E02AF09A95660F771FC7
:10022000881FDAF7880F9695879597F9089503D078
:1002300008F48FEF0895990F0008550FAA0BE0E816
:10024000FEEF16161706E807F907C0F01216130698
:10025000E407F50798F0621B730B840B950B39F4D8
:100260000A2661F0232B242B252B21F408950A263E
:1002700009F4A140A6958FEF811D811D08950024EA
:10028000552704C0080E591F880F991F009729F0A1
:1002900076956795B8F37105B9F7802D952F089578
:1002A00097FB072E16F4009406D077FD08D00BD0EC
:1002B00007FC05D03EF4909581959F4F0895709569
:1002C00061957F4F0895AA1BBB1B51E107C0AA1F70
:1002D000BB1FA617B70710F0A61BB70B881F991FE7
:1002E0005A95A9F780959095BC01CD010895F89491
:0202F000FFCF3E
:00000001FF
