:1000000009C019C018C017C016C015C014C013C04D
:1000100012C011C011241FBECFE9CDBF10E0A0E671
:10002000B0E0E6EAF1E002C005900D92AA38B1070F
:10003000D9F723D0B6C0E4CF8FE384BB87E087BB7A
:1000400083E886B983E287B983EC8FBD16BE81E071
:1000500083BF0895009781F0C29AEFE4F3EC3197E3
:10006000F1F700C00000C298EFE4F3EC3197F1F72C
:1000700000C000000197EECF08952FE38DE093E0DC
:10008000215080409040E1F700C00000D5DFE12C16
:10009000F12C20E030E0C0E0D0E094E1B92E42E263
:1000A000A42E53E2952E6AE0C62ED12C36992CC090
:1000B000E094F094E0FE08C0C5B1D0E06997CC0FA1
:1000C000DD1F97B8890106C085B16B2D37D0082F89
:1000D00010E0A7B8369A02171307B1F0C2982FE3C1
:1000E0008DE093E0215080409040E1F700C0000097
:1000F000C801B0DF2FE38DE093E0215080409040B5
:10010000E1F700C000009801E0E6F0E0CF01805682
:100110009040419150E04C175D07C4F3FC01E05A58
:10012000FF4F8589809586BFCE01B60113D0261773
:10013000370714F4C29ABACFC298B8CF991B79E0A6
:1001400004C0991F961708F0961B881F7A95C9F767
:100150008095089597FB072E16F4009406D077FD3E
:1001600008D00BD007FC05D03EF4909581959F4FA9
:100170000895709561957F4F0895AA1BBB1B51E1AF
:1001800007C0AA1FBB1FA617B70710F0A61BB70B07
:10019000881F991F5A95A9F780959095BC01CD01AC
:0601A0000895F894FFCF62
:1001A60014191E23282D32373C41464B50555A5FB1
:1001B60064696E73780019334C66727F99B2CCE528
:0A01C600FFFFFFFFFFFFFFFFFFFF39
:00000001FF
